:100000000C942A000C9434000C9434000C943400AA
:100010000C9434000C9434000C9434000C94340090
:100020000C9434000C9434000C9434000C94340080
:100030000C9434000C9434000C9434000C94340070
:100040000C9434000C9434000C9434000C94340060
:100050000C94340011241FBECFE5D8E0DEBFCDBF25
:100060000E9476000C9480000C94000024E030E0A4
:1000700036C081E090E0022E02C0880F991F0A94DA
:10008000E2F780958BBB89B38F3F11F488BB29C001
:1000900089B38F708D3089F028F48730C1F08B30B0
:1000A00089F01AC08E3021F08F30B1F418BA16C022
:1000B0003F5F8DEF820F88BB11C03F5F81E0820FF1
:1000C00088BB0CC03F5F85E0820F88BB07C03F5FE5
:1000D00089E0820F88BB02C08FEF88BB2F5F28307A
:1000E00040F2323010F08FEF88BB089580EF8ABB6A
:1000F0008FE08BBB8FEF87BB18BA0E943600FDCF15
:04010000F894FFCFA1
:00000001FF
